:0300000002090FE3
:0C090F00787FE4F6D8FD758120020956BF
:100D6B00010C00010F00C100010B00C181010D003E
:100A6300120DA8120C51120AE5758901D2AFD2A951
:100A7300758C3C758AB0D28C7F89120D42E50C755A
:100A8300F00A842430FF120CF5E50C75F00A84E5B6
:100A9300F02430FF120CF51208003000FAC20012E5
:070AA3000A0012099B80F01C
:040C09007F0A7E00E0
:100C0D00E4FDFCC3ED9FEC9E5015E4FBFA0BBB001D
:0F0C1D00010AEB64784A70F50DBD00010C80E40C
:010C2C0022A5
:070DA800907F007480F0222F
:03000B00020B5590
:100B5500C0E0C0D0758C3C758AB0050FC3E50F9415
:100B650002748094804005750F00D200050BC3E523
:100B75000B9404748094804005750B00B201D0D0AD
:030B8500D0E0328B
:100D4200907C00EFF0907E007402F00000E4F07FEF
:050D520001FE020C0D82
:070CEE00E9C4540F2430FF9C
:100CF500907C00EFF0907E007403F000007401F02A
:060D0500FF7E00020C0D50
:100C51007F147E00120C0D7F38120D427F0C120D95
:100C6100427F06120D427F01120D427F027E000279
:020C71000C0D68
:060C2D00C292C291D292B6
:100C3300E4FEEEC39408748094805011EF139290F5
:0D0C430000D29100C291EFC313FF0E80E5B7
:010C50002281
:100BE000E4FFD290FEEEC3940874809480501930D4
:100BF000900DA8067401088002C333D8FC4207D2C6
:080C00009100C291000E80DD9D
:010C080022C9
:080D9600120C2D120BE0C292B9
:010D9E002232
:090D57007F84120D607D807F8E07
:0B0D6000120C2DAF05120C33C29222C2
:100AAA00E4FD7F8E120D607F80120D607F82120D31
:100ABA00607D127F84120D607D037F8A120D607D36
:100ACA00097F86120D607D077F88120D607D267F63
:0B0ADA008C120D607D807F8E020D608D
:10099B007F87120D968F107F89120D968F117F8D89
:1009AB00120D96A9077F8B120D96EF5407F5127F48
:1009BB00C0120D427F32120CF57F30120CF5120C67
:1009CB00EEE9120CF07F2D120CF5E511120CEFE590
:1009DB0011120CF07F2D120CF5E510120CEFE51037
:1009EB00120CF07F20120CF57F57120CF5E5122438
:0509FB0030FF020CF5C5
:100A00007F85120D96A9077F83120D968F107F8127
:100A1000120D96EF547FF5117F80120D42AF01E564
:100A20000D64017006200103D38001C39202120DF0
:100A3000277F3A120CF5E50D64027006200103D3FE
:100A40008001C39202AF10120D277F3A120CF5E518
:100A50000D64037006200103D38001C39202AF111D
:030A6000020D275D
:1008000020B220120C0920B217E4FD7F8E120D6079
:100810007F80120D607F82120D60120D5730B2FD85
:0C082000120B1E20B324120C0920B31E82
:10082C007F81120D968F10631080E4FD7F8E120D68
:0E083C0060AD107F80120D5930B3FD120B1EFF
:10084A0020B41E120C0920B418E50D045403F50D4A
:10085A0064017003120C73E50D7003120C9230B42C
:10086A00FD30B50302090E120C0930B50302090E58
:06087A00E50D640170228F
:100880007F85120D96120D7C8F100510C3E5109414
:1008900018748094804003E4F510120D0BAD07121C
:0208A0000D57F2
:0608A200E50D6402702464
:1008A8007F83120D96120D7C8F100510C3E51094EE
:1008B8003C748094804003E4F510120D0BAD077F63
:0408C80082120D5932
:0608CC00E50D6403703627
:1008D2007F81120D96EF547FFF120D7C8F10051051
:1008E200C3E510943C748094804003E4F510AF108B
:1008F200120D148F0E430E80E4FD7F8E120D60AD3B
:060902000E7F80120D596A
:0709080030B5FD120B1E22A9
:0F0D7C00EFC4540F75F00AA4FEEF540F2EFF22A0
:090D0B00E4FD7F8E120D60AF10B3
:100D1400EF75F00A84C454F0FEEF75F00A84E5F030
:030D24004EFF225D
:100C73007F81120D96AC07430480E4FD7F8E120D35
:0F0C830060AD047F80120D607D807F8E020D605A
:100C92007F81120D96AC0753047FE4FD7F8E120D07
:0F0CA20060AD047F80120D607D807F8E020D603B
:100D2700A9073002097F20120CF57F208009120CD9
:0B0D3700EEE9540F2430FF120CF522EF
:0B0D8B00D294D29300C29400C29322C5
:090D9F00C294D29300D294002208
:100BB600E4FEEEC39408748094805010EF33929450
:100BC600D29300C293EF25E0FF0E80E6D294D29333
:090BD60000A2949202C293A20253
:010BDF0022F3
:100B8800E4FFD294FEEEC39408748094805013D28C
:100B98009300EF25E0FF309403430701C293000E52
:0D0BA80080E3A2029294D29300C293D294F3
:010BB500221D
:100CD000AC07120D8B7FA0120BB6AF04120BB6AF90
:0E0CE00005120BB6120D9F7F057E00020C0D53
:020CB100AD078D
:100CB300120D8B7FA0120BB6AF05120BB6120D8B64
:0D0CC3007FA1120BB6D202120B88020D9F0A
:100B1E007F81120D96A907E930E7047D0180027DE1
:100B2E00007F02120CD07F85120D96AD077F031247
:100B3E000CD07F83120D96AD077F04120CD0E954B2
:070B4E007FFD7F05020CD0C2
:100AE500E4FF120CB1EF645A70187F01120CB1EFDC
:100AF50004F50C7F02120CB1EF64017012120C7335
:100B0500800D120AAA7D5AE4FF120CD0750C01ADB6
:090B15000C7F01120CD0020B1E32
:10091B00020A63E493A3F8E493A34003F68001F285
:10092B0008DFF48029E493A3F85407240CC8C333DD
:10093B00C4540F4420C8834004F456800146F6DFAC
:10094B00E4800B0102040810204080900D6BE47EC4
:10095B00019360BCA3FF543F30E509541FFEE493A1
:10096B00A360010ECF54C025E060A840B8E493A368
:10097B00FAE493A3F8E493A3C8C582C8CAC583CA93
:10098B00F0A3C8C582C8CAC583CADFE9DEE780BE4B
:010D7B000077
:00000001FF
